:100000000A128A15742FFF1B0D2883137F1883177C
:100010000008840A0319FF0A080000308A00040857
:10002000840A82070034013400340A340034643412
:100030000034E83403341034273446344134523425
:1000400045344E3448344534493454343A34003419
:10005000433445344C3443344934553453343A34BE
:10006000003425346434003483120313A9002918A2
:100070003A283E28831203130914412883120313DC
:100080000910280888000A128A1595270A128A1171
:1000900008006728831203132B08FF002A08840036
:1000A0000A128A1103200A128A11AC002C08A80037
:1000B00001300A128A1134200A128A110130831287
:1000C0000313AA070318AB0A0030AB076728831293
:1000D00003132B08FF002A0884000A128A11032048
:1000E0000A128A110038031D762877284A287828B2
:1000F00008007908780403197E287F28B528FD01B7
:100100000314FD0D8F2801300310F80DF90DFF3E8B
:10011000031D84280130FC007C08FD078F28F91F8F
:100120009228932883289528952879087B02031D17
:100130009B2878087A02031C9E289F28A628780806
:10014000FA027908031CFB03FB02A6280130031006
:10015000F90CF80CFF3E031DA7280130FD02031D1A
:10016000B228B3289528B528B5287B08F901F907E6
:100170007A08F801F807BC280800F501F6017108B3
:1001800070040319C428C5280329F7010314F70DC7
:10019000D52801300310F00DF10DFF3E031DCA28D4
:1001A0000130F4007408F707D528F11FD828D928A2
:1001B000C928DB28DB2801300310F50DF60DFF3EC2
:1001C000031DDC2871087302031DE8287008720201
:1001D000031CEB28EC28F4287008F2027108031CB9
:1001E000F303F3027514F42801300310F10CF00C42
:1001F000FF3E031DF5280130F702031D00290129E8
:10020000DB28032903297608F101F1077508F001BD
:10021000F0070A290800FD0183120313A71F112903
:1002200012291B29A609A709A60A0319A70AFD0175
:100230000314FD0D1B29A51F1E291F292529A4090B
:10024000A509A40A0319A50A2529250824040319C8
:100250002A292B296129FC010314FC0D3B290130BB
:100260000310A40DA50DFF3E031D30290130FB0036
:100270007B08FC073B29A51F3E293F292F2941293F
:10028000412925082702031D472924082602031CAB
:100290004A294B2952292408A6022508031CA70332
:1002A000A702522901300310A50CA40CFF3E031D28
:1002B00053290130FC02031D5E295F294129612970
:1002C00061297D08031D65296B29A609A709A60ACE
:1002D0000319A70A6B292708A501A5072608A40169
:1002E000A4077229080083120313A101F71F7929BB
:1002F0007A298329F609F709F60A0319F70AA101F1
:100300000314A10D8329F91F862987299129F8094A
:10031000F909F80A0319F90A0130FA007A08A10666
:100320009129A201A3017708760403199829992934
:10033000D729A0010314A00DA92901300310F60D3F
:10034000F70DFF3E031D9E290130FA007A08A00731
:10035000A929F71FAC29AD299D29AF29AF29013063
:100360000310A20DA30DFF3E031DB02977087902EB
:10037000031DBC2976087802031CBF29C029C8299F
:100380007608F8027708031CF903F9022214C82939
:1003900001300310F70CF60CFF3E031DC929013094
:1003A000A002031DD429D529AF29D729D72921088F
:1003B000031DDB29E129A209A309A20A0319A30A43
:1003C000E1292308F701F7072208F601F607E829D3
:1003D00008007308031DED29F529720871047004E3
:1003E000031DF329F4290B2AF5290030F000003011
:1003F000F1000030F200632A632A0B2A0130F50075
:100400007508F30701300310F20CF10CF00CFF3EFD
:10041000031D032A0B2AFE307205031D102A112A20
:10042000FE29292A292A0130F5007508F307013031
:10043000F007003003180130F107003003180130D5
:10044000F20701300310F20CF10CF00CFF3E031D1B
:10045000222AFF307205031D2E2A2F2A132A3C2A36
:100460003C2A0130F30201300310F00DF10DF20DC2
:10047000FF3E031D342A3C2AF11F3F2A402A312A1D
:100480007318432A442A4A2AFF30F0057F30F105C9
:10049000FF30F2050310F30C7308F500F601F701C5
:1004A00010300310F50DF60DF70DFF3E031D512A18
:1004B0007508F0047608F1047708F2047408031D47
:1004C000622A632AF2170800780883120313A00037
:1004D0007908A1007A08A2000310210D220DA300C3
:1004E0002308A900A908031D762A772A812A00304B
:1004F000FB000030FA000030F9000030F800092B52
:10050000092B7808A0007908A1007A08A20017300A
:100510000310A20CA10CA00CFF3E031D882A20088A
:10052000A3002308A400F917FF30F805FF30F905F0
:100530000030FA057808A5007908A6007A08A70017
:10054000A8018E30A902A91FA62AA72ACC2A290809
:10055000803A8F3E0318AD2AAE2AB92A0030FB003C
:100560000030FA000030F9000030F800092B092BA8
:10057000B92A01300310A80CA70CA60CA50CFF3E4D
:10058000031DBA2A0130A0002008A907031DC92AAB
:10059000CA2AB92AF02AF02A18302902031CD12AC3
:1005A000D22AE92A0030FB000030FA000030F900BE
:1005B0000030F800092B092BE92A0130A0000310B4
:1005C000A50DA60DA70DA80DA00BDF2A0130A902CD
:1005D000E92AA908031DED2AEE2ADD2AF02AF02ACD
:1005E0002408031DF42A002BA509A609A709A809B8
:1005F000A50A0319A60A0319A70A0319A80A002BBA
:100600002808FB002708FA002608F9002508F8004A
:10061000092B0800831203133D08C0003E08C100E7
:100620003F08C2000310410D420DC3004308C8003B
:10063000C808031D1C2B1D2B252B0030BA000030D1
:10064000BB000030BC00D12BD12B3A08C0003B08C6
:10065000C1003C08C2000310410D420DC300430815
:10066000C900C908031D352B362B3E2B0030BA00BC
:100670000030BB000030BC00D12BD12B0030C500B6
:100680000030C6000030C70089304907C00040086C
:10069000C8023D08C0003E08C1003F08C20010303B
:1006A0000310C20CC10CC00CFF3E031D502B4008B0
:1006B000C3004308C9003A08C0003B08C1003C0819
:1006C000C20010300310C20CC10CC00CFF3E031D51
:1006D000622B4008C3004308C9068030C0004008B0
:1006E000C905BE17FF30BD05FF30BE050030BF0590
:1006F000BB17FF30BA05FF30BB050030BC05183012
:10070000C0004008C400842B01300310C50DC60D85
:10071000C70DFF3E031D852B3C083F02031D962B92
:100720003B083E02031D962B3A083D02031C992B01
:100730009A2BA62B3A08BD023B08031C3B0FBE02B6
:100740003C08031C3C0ABF024514A62B01300310D1
:10075000BD0DBE0DBF0DFF3E031DA72B0130C40212
:10076000031DB32BB42B842BB52B4508F000460892
:10077000F1004708F2004808C0004008F3004908AB
:10078000C1004108F4000A128A11E9210A128A11F3
:10079000700883120313BA007108BB007208BC0012
:1007A000D12B0800831203132A08B0002B08B100D4
:1007B0002C08B2000310310D320DB3003308B40021
:1007C000B408031DE42BE52BED2B0030AA0000300C
:1007D000AB000030AC00BF2CBF2C2D08B0002E08A1
:1007E000B1002F08B2000310310D320DB3003308F1
:1007F000B900B908031DFD2BFE2B062C0030AA0002
:100800000030AB000030AC00BF2CBF2C39087B3E61
:10081000B0003008B4072A08B0002B08B1002C083B
:10082000B20010300310B20CB10CB00CFF3E031D2F
:10083000122C3008B3003308B9002D08B0002E0880
:10084000B1002F08B20010300310B20CB10CB00C84
:10085000FF3E031D242C3008B3003308B906803056
:10086000B0003008B905AB17AE17FF30AD05FF304B
:10087000AE050030AF050030B5000030B6000030E6
:10088000B7000730B0003008B800462C2A1C492CAD
:100890004A2C5B2C2D08B5072E08031103182E0ACD
:1008A0000319532CB6072F08031103182F0A031935
:1008B0005A2CB7075B2C01300310AC0CAB0CAA0C04
:1008C000FF3E031D5C2C01300310AD0DAE0DAF0DCE
:1008D000FF3E031D642C0130B802031D702C712CE7
:1008E000462C722C0930B0003008B800772C2A1C36
:1008F0007A2C7B2C8C2C2D08B5072E08031103189D
:100900002E0A0319842CB6072F08031103182F0A87
:1009100003198B2CB7078C2C01300310AC0CAB0CDB
:10092000AA0CFF3E031D8D2C01300310B70CB60C32
:10093000B50CFF3E031D952C0130B802031DA12C00
:10094000A22C772CA32C3508F0003608F1003708CC
:10095000F2003408B0003008F3003908B100310863
:10096000F4000A128A11E9210A128A11700883120E
:100970000313AA007108AB007208AC00BF2C08007A
:1009800083120313AD002130A3002308A600A42D79
:100990002E08253A0319CD2CCE2CDA2C2E08A300D4
:1009A0002D0884002308831380000130A30023084E
:1009B000AD07A42DA701E12CB82DF62CF62CA42D03
:1009C000F62C0130A007FF30200784000A128A119C
:1009D0000D200A128A11AE00003A0319B82D643AAC
:1009E0000319F62C0D3A0319F62CA42D26088400C1
:1009F00083130008A900840A0008AA000230A3009B
:100A00002308A607AA1F052D062D102D0330A300CD
:100A10002308A704A909AA09A90A0319AA0A102DDB
:100A2000AE010314AE0D2E08053A031D182D192D25
:100A30001B2D432D432D2E08A3002307013E8400C8
:100A40000A128A110D200A128A11A4000A128A11B0
:100A50000D200A128A11A50025082A02031D322D35
:100A6000240829020318352D362D382D432D432D0A
:100A70000130A3002308AE072E08053A031D412DBF
:100A8000422D1B2D432D270803390319482D492DCD
:100A9000552D2D30A3002D088400230883138000DA
:100AA0000130A3002308AD07552D2E08A30023080D
:100AB000A800982D0A30F8000030F9002808A3009B
:100AC0002307013E84000A128A110D200A128A119E
:100AD000F0000A128A110D200A128A11F1002A0868
:100AE000F301F3072908F201F2070A128A11BD2067
:100AF0000A128A117108FB01FB077008FA01FA0754
:100B00000A128A1179200A128A117808303E83125B
:100B10000313A4002408AE002E08A3002D088400AF
:100B20002308831380000130A3002308AD07982D0C
:100B3000FF30A3002308A8072808FF3A031DA12DB2
:100B4000A22D5A2DA42DA42D0130A007FF3020077F
:100B500084000A128A110D200A128A11A3002308A8
:100B6000AE00AE08031DB52DB62DC82CB82DB82D7E
:100B70002D08840083138001BD2D08008312031308
:100B80008901880186018501831603138901880183
:100B900001308600B130831203139F00803083162A
:100BA00003139F000330850083160317880110305C
:100BB0008900383083120313CA004A08A8000030A5
:100BC0000A128A1134200A128A110C30831203137C
:100BD000CA004A08A80000300A128A1134200A12FA
:100BE0008A11803083120313CA004A08A80000301B
:100BF0000A128A1134200A128A110E30831203134A
:100C0000CA004A08A80000300A128A1134200A12C9
:100C10008A110A2E831603131E0883120313CA00B7
:100C2000CB014A08D5004B08D6001E08CA00CB01EC
:100C30004A08D1004B08D2009F14F42F8030CA001C
:100C40004A08A80000300A128A1134200A128A11B8
:100C50008312031352085104031D2F2E302E372EFA
:100C60005608D801D8075508D701D707372E803046
:100C7000CA004A08A80000300A128A1134200A1259
:100C80008A1101308312031351065204031D492EA9
:100C90004A2E532E5508003ED70056080318013E31
:100CA000013ED800532E8030CA004A08A800003008
:100CB0000A128A1134200A128A1102308312031395
:100CC00051065204031D652E662E6F2E5508003EF8
:100CD000D70056080318013E023ED8006F2E803020
:100CE000CA004A08A80000300A128A1134200A12E9
:100CF0008A1103308312031351065204031D812EFF
:100D0000822E8B2E5508003ED70056080318013E50
:100D1000033ED8008B2E051C8E2E8F2E802F803008
:100D2000CA004A08A80000300A128A1134200A12A8
:100D30008A11C03083120313BA007F30BB004430E5
:100D4000BC000030AA00A030AB004030AC00580816
:100D5000F901F9075708F801F8070A128A15AE27B2
:100D60000A128A11780883120313AD007908AE00C5
:100D70007A08AF000A128A11D2230A128A1183124A
:100D800003132A08BD002B08BE002C08BF000A125E
:100D90008A110A230A128A11831203133A08CC001B
:100DA0003B08CD003C08CE001630AA008030AB00D6
:100DB0000A128A1149200A128A11831203134C085D
:100DC000AD004D08AE004E08AF000030AA00C8309C
:100DD000AB004230AC000A128A11D2230A128A11E7
:100DE000831203132A08F8002B08F9002C08FA00D4
:100DF0000A128A1164220A128A11790883120313D3
:100E0000D401D4077808D301D3070A30A4000030F6
:100E1000A5006430F6000030F7005408F901F90726
:100E20005308F801F8070A128A1173210A128A116D
:100E3000770883120313A701A7077608A601A60760
:100E40000A128A110B210A128A1183120313240831
:100E5000303ECA004A08A80001300A128A11342024
:100E60000A128A110A3083120313A4000030A5006D
:100E70000A30F6000030F7005408F901F90753086A
:100E8000F801F8070A128A1173210A128A117708E9
:100E900083120313A701A7077608A601A6070A1263
:100EA0008A110B210A128A11831203132408303E7F
:100EB000CA004A08A80001300A128A1134200A1216
:100EC0008A110A3083120313A4000030A5005408CD
:100ED000A701A7075308A601A6070A128A110B212A
:100EE0000A128A11831203132408303ECA004A08EA
:100EF000A80001300A128A1134200A128A11802FA8
:100F000083120313851C852F862FE12FC030CA0062
:100F10004A08A80000300A128A1134200A128A11E5
:100F20000B3083120313AA008030AB000A128A111F
:100F300049200A128A110530F6000030F7008312AA
:100F400003135408F101F1075308F001F0070930C9
:100F5000F2000030F3000A128A15D6270A128A110D
:100F60007108F901F9077008F801F8070A128A11E7
:100F700073210A128A117608203E83120313CF00D0
:100F800077080318013E003ED0001F30CA004A080F
:100F9000A0005008A201A2074F08A101A1075930E3
:100FA0000A128A11C0240A128A11593083120313BB
:100FB000AA000030AB000A128A1149200A128A11D5
:100FC000E12F831203135008803AFF0080307F0224
:100FD000031DEC2F63304F02031CEF2FF02FF42F73
:100FE000831203138614F42F831203139F18F92F0F
:100FF000FA2F1E2E0A2E0A2E0A2E0A128A110028F5
:101ED80064008001840A04060319003404066D2F87
:101EE80083134C3084006D300A128A156C270A124D
:101EF8008A1583010A128A11BE2D832F832F013080
:101F0800F0020030031CF103F102FF307106031DDB
:101F18008F2FFF307006031D922F932F832F942F3E
:101F280008008312031389148830F0001330F1007D
:101F38000A128A1581270A128A1583120313891037
:101F48008830F0001330F1000A128A1581270A122E
:101F58008A150800FD01F91FB22FB32FBC2FF8090D
:101F6800F909F80A0319F90AFD010314FD0DBC2F3C
:101F78007808F0007908F100F2018E30FB007B0848
:101F8800F3007D08FC007C08F4000A128A11E9219C
:101F98000A128A157008F8007108F9007208FA0028
:101FA800D52F0800F401F501D92F701CDC2FDD2F87
:101FB800E32F7208F4070318F50A7308F5070130D0
:101FC8000310F20DF30DFF3E031DE42F0130031043
:101FD800F10CF00CFF3E031DEB2F71087004031D7C
:101FE800F62FF72FD92FF82F7508F101F10774088C
:081FF800F001F007FF2F0800C3
:02400E00E42CA0
:00000001FF
